:0400000065EF00F0B8
:0600080054821DEF26F0FA
:100018005480D8CF05F0E8CF06F0E0CF07F0FACF4C
:1000280008F0FBCF09F0D9CF0AF0DACF0BF09DA882
:1000380020EF00F022EF00F039EF00F09EA827EF44
:1000480000F029EF00F039EF00F002D837EF00F0A8
:1000580005000001FA6EEE51FD6EEF51FE6EF8508C
:10006800FF6EFA50120055EF00F09DAA3EEF00F027
:1000780040EF00F055EF00F09EAA45EF00F047EF83
:1000880000F055EF00F002D855EF00F00500000130
:10009800FA6EEC51FD6EED51FE6EF850FF6EFA509F
:1000A80012000BC0DAFF0AC0D9FF09C0FBFF08C065
:1000B800FAFF07C0E0FF06C0E8FF05C0D8FF54906C
:1000C8001000A8EF25F091C0B4F192C0B5F193C02B
:1000D800B6F194C0B7F1B4C15CF1B5C15DF1B6C178
:1000E8005EF1B7C15FF195C0B4F196C0B5F197C0A4
:1000F800B6F198C0B7F1B4C178F1B5C179F1B6C11C
:100108007AF1B7C17BF1FF0E01015C15A46FFF0EF8
:100118005D15A56FFF0E5E15A66F7F0E5F15A76FA5
:10012800FF0E78158C6FFF0E79158D6FFF0E7A15FF
:100138008E6F7F0E7B158F6F8C518D118E118F11E5
:10014800D8A4A9EF00F0ABEF00F0B6EF00F0000E76
:100158000001916F000E926F800E936F3F0E946FA7
:100168006DEF15F0800E5E1909E13F0E5F195C1105
:100178005D11D8A4C2EF00F0C4EF00F0CFEF00F09B
:10018800000E0001916F000E926F800E936F3F0E6C
:10019800946F6DEF15F0A7BFE0EF00F0A405000E17
:1001A800A559800EA6597F0EA759D8B0DEEF00F0EA
:1001B800E0EF00F0F1EF00F08FBFEFEF00F08C05FB
:1001C800000E8D59800E8E597F0E8F59D8A0EFEFF3
:1001D80000F0F1EF00F00DEF01F091C00CF092C0CB
:1001E8000DF093C00EF094C00FF095C010F096C0BB
:1001F80011F097C012F098C013F0CEEC17F00CC0B5
:1002080091F00DC092F00EC093F00FC094F06DEF16
:1002180015F0000E4C6F000E4D6F000E4E6F000E65
:100228004F6F5FBF1CEF01F01AEF01F0E8EF01F02C
:100238008FBF28EF01F0800E8E5D4B0E8F59D8A02E
:1002480028EF01F02AEF01F034EF01F0020E4C6FB5
:10025800000E4D6F000E4E6F000E4F6FE8EF01F06D
:100268008FBF40EF01F0800E8E5D3F0E8F59D8A0F2
:1002780040EF01F042EF01F0E8EF01F0170E000146
:10028800996F8CC19AF08DC19BF08EC19CF08FC183
:100298009DF0996752EF01F05AEF01F09D359D33BB
:1002A8009C339B339A33992F4DEF01F0810E000157
:1002B8009A2501019C6FFF0E00019B2101019D6F92
:1002C800FF0E00019C2101019E6FFF0E00019D2180
:1002D80001019F6F9C5117080001996F8CC19AF01A
:1002E8008DC19BF08EC19CF08FC19DF099677FEF07
:1002F80001F087EF01F09D359D339C339B339A3392
:10030800992F7AEF01F09AC0A8F19BC0A9F19CC07F
:10031800AAF19DC0ABF101019C5117080001996F2A
:10032800A8C19AF0A9C19BF0AAC19CF0ABC19DF0ED
:10033800992BA4EF01F0D8909A379B379C379D37BB
:10034800992F9FEF01F001018C5100019A1913E1D7
:1003580001018D5100019B190EE101018E5100012F
:100368009C1909E101018F5100019D19D8A4BFEF23
:1003780001F0C1EF01F0E8EF01F0010E0101A8154D
:100388000001996F000E0101A91500019A6F000E76
:100398000101AA1500019B6F000E0101AB150001B8
:1003A8009C6F9951020801014C6F000E00019A558B
:1003B80001014D6F000E00019B5501014E6F000EAB
:1003C80000019C5501014F6F800E01018E1909E152
:1003D8007F0E8F198C118D11D8A4F5EF01F0F7EF6E
:1003E80001F063EF02F0800EA61909E13F0EA7198C
:1003F800A411A511D8A403EF02F005EF02F010EF45
:1004080002F0000E0001916F000E926F800E936F44
:100418003F0E946F6DEF15F0A7BF1FEF02F0A40514
:10042800000EA559800EA6593F0EA759D8A01FEF58
:1004380002F021EF02F03DEF02F07BBF28EF02F05F
:1004480026EF02F033EF02F0000E0001916F000E6C
:10045800926F000E936F000E946F6DEF15F095C0BC
:1004680091F096C092F097C093F098C094F06DEF19
:1004780015F07BBF44EF02F042EF02F058EF02F0B4
:1004880095C00CF096C00DF097C00EF098C00FF014
:1004980001EC2EF00CC091F00DC092F00EC093F05C
:1004A8000FC094F06DEF15F0000E0001916F000E73
:1004B800926F000E936F000E946F6DEF15F0800E23
:1004C8008E1909E13F0E8F198C118D11D8A46FEF89
:1004D80002F071EF02F09EEF02F07BBF78EF02F0BE
:1004E80076EF02F094EF02F0000E3D6E000E3E6EC5
:1004F800800E3F6E3F0E406E91C041F092C042F0B8
:1005080093C043F094C044F043EC1CF03DC091F01C
:100518003EC092F03FC093F040C094F06DEF15F0EC
:1005280091C091F092C092F093C093F094C094F06F
:100538006DEF15F0400E7B19781179117A11D8A456
:10054800A8EF02F0AAEF02F0C6EF02F091C01CF08B
:1005580092C01DF093C01EF094C01FF091C020F00F
:1005680092C021F093C022F094C023F02EEC1AF030
:100578001CC091F01DC092F01EC093F01FC094F0F3
:100588006DEF15F03F0E7B19781179117A11D8A407
:10059800D0EF02F0D2EF02F0EDEF02F05FBFD7EF3D
:1005A80002F0D9EF02F0EDEF02F091C064F092C0D2
:1005B80065F093C066F094C067F06EEC15F064C007
:1005C80091F065C092F066C093F067C094F06DEF4B
:1005D80015F091C00CF092C00DF093C00EF094C0CD
:1005E8000FF038EC2EF00CC06CF10DC06DF10EC0A0
:1005F8006EF10FC06FF1800E0101A6190BE17F0E9D
:10060800A719A411A511D8B40CEF03F00EEF03F04D
:1006180027EF03F0A451A511A611A711D8B417EF1D
:1006280003F019EF03F027EF03F0800EA61909E194
:100638003F0EA719A411A511D8A425EF03F027EFA1
:1006480003F0F2EF03F06CC1B0F16DC1B1F16EC10E
:10065800B2F16FC1B3F17BBF36EF03F034EF03F0B3
:1006680050EF03F0000E3D6E000E3E6E800E3F6EA2
:100678003F0E406EB0C141F0B1C142F0B2C143F08B
:10068800B3C144F043EC1CF03DC0B0F13EC0B1F141
:100698003FC0B2F140C0B3F101015FBF58EF03F0B2
:1006A80056EF03F0E8EF03F0000EA4250001996F60
:1006B800000E0101A52100019A6F800E0101A621FB
:1006C80000019B6FC00E0101A72100019C6F010171
:1006D8004C51000199119D6F01014D5100019A1172
:1006E8009E6F01014E5100019B119F6F01014F51F7
:1006F80000019C11A06F9D519E119F11A011D8A4BB
:1007080088EF03F08AEF03F0CAEF03F0B0C139F0C5
:10071800B1C13AF0B2C13BF0B3C13CF0B0C135F061
:10072800B1C136F0B2C137F0B3C138F07EEC2DF06C
:1007380035C03DF036C03EF037C03FF038C040F01D
:10074800B0C139F0B1C13AF0B2C13BF0B3C13CF02D
:10075800B0C135F0B1C136F0B2C137F0B3C138F02D
:100768007EEC2DF035C041F036C042F037C043F082
:1007780038C044F043EC1CF03DC0B0F13EC0B1F1CC
:100788003FC0B2F140C0B3F1E8EF03F001014C05FE
:100798004D114E114F11D8A4D4EF03F0D6EF03F04A
:1007A800E8EF03F0B0C10CF0B1C10DF0B2C10EF02A
:1007B800B3C10FF001EC2EF00CC0B0F10DC0B1F1D7
:1007C8000EC0B2F10FC0B3F1B0C191F0B1C192F057
:1007D800B2C193F0B3C194F06DEF15F0000E846FC1
:1007E800000E856F800E866F3F0E876F5FBF01EF2B
:1007F80004F0FFEF03F05FEF04F04C514D114E1180
:100808004F11D8A40AEF04F00CEF04F04CEF04F0F9
:1008180091C039F092C03AF093C03BF094C03CF0DC
:1008280091C035F092C036F093C037F094C038F0DC
:100838007EEC2DF035C03DF036C03EF037C03FF0BD
:1008480038C040F091C039F092C03AF093C03BF004
:1008580094C03CF091C035F092C036F093C037F0A8
:1008680094C038F07EEC2DF035C041F036C042F02F
:1008780037C043F038C044F043EC1CF03DC091F061
:100888003EC092F03FC093F040C094F06DEF15F079
:100898004C054D114E114F11D8A455EF04F057EFE8
:1008A80004F05FEF04F0000E846F000E856F800E79
:1008B800866FBF0E876F8FBF6EEF04F08C05000E3A
:1008C8008D59000E8E594D0E8F59D8A06EEF04F039
:1008D80070EF04F0F5EF06F0A7BF82EF04F0F80E12
:1008E800A45DFF0EA5597F0EA6593F0EA759D8B093
:1008F80080EF04F082EF04F0F5EF04F07BBF87EFA0
:1009080004F089EF04F0BFEF04F0600E206E420E91
:10091800216EA20E226E0D0E236E84C11CF085C1BD
:100928001DF086C11EF087C11FF02EEC1AF01CC006
:10093800A0F11DC0A1F11EC0A2F11FC0A3F1A0C16A
:100948001CF0A1C11DF0A2C11EF0A3C11FF0600ED2
:10095800206E420E216EA20E226E0D0E236E2EEC1C
:100968001AF01CC091F01DC092F01EC093F01FC079
:1009780094F06DEF15F0CA0E206EF20E216E490E3E
:10098800226E710E236E84C11CF085C11DF086C1D4
:100998001EF087C11FF02EEC1AF01CC0A0F11DC07C
:1009A800A1F11EC0A2F11FC0A3F1A0C11CF0A1C1FA
:1009B8001DF0A2C11EF0A3C11FF0CA0E206EF20ED8
:1009C800216E490E226E710E236E2EEC1AF01CC099
:1009D80091F01DC092F01EC093F01FC094F06DEF0F
:1009E80015F0A7BF05EF05F0080EA45D000EA55988
:1009F800800EA6593F0EA759D8A005EF05F007EFBE
:100A080005F082EF05F07BBF16EF05F07B517A11F8
:100A1800791106E17805D8B014EF05F016EF05F066
:100A28004CEF05F0600E206E420E216EA20E226E73
:100A38000D0E236E84C11CF085C11DF086C11EF009
:100A480087C11FF02EEC1AF01CC0A0F11DC0A1F147
:100A58001EC0A2F11FC0A3F1A0C11CF0A1C11DF0CE
:100A6800A2C11EF0A3C11FF0600E206E420E216EBF
:100A7800A20E226E0D0E236E2EEC1AF01CC091F001
:100A88001DC092F01EC093F01FC094F06DEF15F0DA
:100A9800CA0E206EF20E216E490E226E710E236E62
:100AA80084C11CF085C11DF086C11EF087C11FF0EE
:100AB8002EEC1AF01CC0A0F11DC0A1F11EC0A2F1BD
:100AC8001FC0A3F1A0C11CF0A1C11DF0A2C11EF05E
:100AD800A3C11FF0CA0E206EF20E216E490E226EBF
:100AE800710E236E2EEC1AF01CC091F01DC092F00E
:100AF8001EC093F01FC094F06DEF15F06CC10CF0A0
:100B08006DC10DF06EC10EF06FC10FF0000E106ECA
:100B1800000E116E800E126EBF0E136ECEEC17F023
:100B28000CC0ACF10DC0ADF10EC0AEF10FC0AFF10D
:100B3800000E206E000E216E800E226E3E0E236E79
:100B4800ACC11CF0ADC11DF0AEC11EF0AFC11FF0AD
:100B58002EEC1AF01CC039F01DC03AF01EC03BF054
:100B68001FC03CF0AB0E356EAA0E366EAA0E376E5D
:100B78003E0E386E7EEC2DF035C0A0F136C0A1F1E6
:100B880037C0A2F138C0A3F1ACC120F0ADC121F04B
:100B9800AEC122F0AFC123F0ACC11CF0ADC11DF055
:100BA800AEC11EF0AFC11FF02EEC1AF01CC050F100
:100BB8001DC051F11EC052F11FC053F1ACC120F04D
:100BC800ADC121F0AEC122F0AFC123F0A0C11CF02D
:100BD800A1C11DF0A2C11EF0A3C11FF02EEC1AF096
:100BE8001CC039F01DC03AF01EC03BF01FC03CF0DD
:100BF800000E356E000E366E000E376E3F0E386EE4
:100C08007EEC2DF035C044F136C045F137C046F1D1
:100C180038C047F150C11CF051C11DF052C11EF03F
:100C280053C11FF044C120F045C121F046C122F054
:100C380047C123F02EEC1AF01CC040F11DC041F151
:100C48001EC042F11FC043F1ACC11CF0ADC11DF084
:100C5800AEC11EF0AFC11FF0000E206EAA0E216EAD
:100C6800B80E226E3F0E236E2EEC1AF01CC070F1E7
:100C78001DC071F11EC072F11FC073F1700E206E9D
:100C8800A50E216EEC0E226E360E236EACC11CF042
:100C9800ADC11DF0AEC11EF0AFC11FF02EEC1AF0B1
:100CA8001CC035F01DC036F01EC037F01FC038F02C
:100CB8003B0E206EAA0E216EB80E226E3F0E236EDA
:100CC80040C11CF041C11DF042C11EF043C11FF0DC
:100CD8002EEC1AF01CC039F01DC03AF01EC03BF0D3
:100CE8001FC03CF07EEC2DF035C074F136C075F1B4
:100CF80037C076F138C077F170C10CF071C10DF0D2
:100D080072C10EF073C10FF074C110F075C111F00B
:100D180076C112F077C113F0CEEC17F00CC080F159
:100D28000DC081F10EC082F10FC083F180C1B4F112
:100D380081C1B5F182C1B6F183C1B7F1B4C190F1F7
:100D4800B5C191F1B6C192F1B7C193F1000E01019D
:100D58009015B46FF00E9115B56FFF0E9215B66F22
:100D6800FF0E9315B76FB4C180F1B5C181F1B6C15B
:100D780082F1B7C183F170C139F071C13AF072C123
:100D88003BF073C13CF080C135F081C136F082C1BF
:100D980037F083C138F07EEC2DF035C094F136C0C1
:100DA80095F137C096F138C097F174C135F075C127
:100DB80036F076C137F077C138F094C139F095C173
:100DC8003AF096C13BF097C13CF07EEC2DF035C06F
:100DD80014F136C015F137C016F138C017F163EFBA
:100DE8000EF0000E7C6F000E7D6F000E7E6F000E01
:100DF8007F6FA7BF0BEF07F0A75107E1800EA65D35
:100E0800D8B009EF07F00BEF07F03EEF07F06CC121
:100E18001CF06DC11DF06EC11EF06FC11FF0000EF9
:100E2800206E000E216E800E226E4B0E236E2EEC6D
:100E38001AF01CC06CF11DC06DF11EC06EF11FC010
:100E48006FF1E80E01017C27FF0E7D23FF0E7E2344
:100E5800FF0E7F236CC1B4F16DC1B5F16EC1B6F15F
:100E68006FC1B7F1B4C1A4F1B5C1A5F1B6C1A6F17E
:100E7800B7C1A7F1170E0001996FA4C19AF0A5C1D7
:100E88009BF0A6C19CF0A7C19DF099674EEF07F0B3
:100E980056EF07F09D359D339C339B339A33992F3A
:100EA80049EF07F0810E00019A259E6FFF0E9B21E6
:100EB8009F6FFF0E9C21A06FFF0E9D21A16F9E5179
:100EC80001017C2700019F5101017D230001A051F0
:100ED80001017E230001A15101017F23FF0EA4150A
:100EE800A86FFF0EA515A96F7F0EA615AA6F000E95
:100EF800A715AB6F000EA811A46F000EA911A56F5E
:100F0800800EAA11A66F3F0EAB11A76FABBF9CEF67
:100F180007F0AB510BE1720EA85DC40EA9591C0E67
:100F2800AA59D8B09AEF07F09CEF07F0A6EF07F0A0
:100F3800000E9C6F000E9D6F000E9E6F000E9F6F3F
:100F4800D8EF07F0ABBFB8EF07F0AB510BE1D70E06
:100F5800A85DB30EA9595D0EAA59D8B0B6EF07F02F
:100F6800B8EF07F0C2EF07F0010E9C6F000E9D6FFF
:100F7800000E9E6F000E9F6FD8EF07F0000E9C6F5B
:100F8800000E9D6F000E9E6F000E9F6F010E7C2756
:100F9800000E7D237E237F23000EA427000EA523A9
:100FA800800EA623FF0EA723A4C1B4F1A5C1B5F1F5
:100FB800A6C1B6F1A7C1B7F1B4C16CF1B5C16DF165
:100FC800B6C16EF1B7C16FF16CC135F06DC136F0C5
:100FD8006EC137F06FC138F09CC199F09DC19AF08D
:100FE8000001D89099379A37D89099379A37710E67
:100FF8009925F66E7E0E9A21F76E0900F5CF39F025
:101008000900F5CF3AF00900F5CF3BF00A00F5CF1B
:101018003CF07EEC2DF035C070F136C071F137C070
:1010280072F138C073F1000E3D6E000E3E6E800EF8
:101038003F6E3F0E406E6CC110F06DC111F06EC175
:1010480012F06FC113F09CC199F09DC19AF0000194
:10105800D89099379A37D89099379A37710E992539
:10106800F66E7E0E9A21F76E0900F5CF0CF0090096
:10107800F5CF0DF00900F5CF0EF00A00F5CF0FF00F
:10108800CEEC17F00CC041F00DC042F00EC043F09A
:101098000FC044F043EC1CF03DC074F13EC075F144
:1010A8003FC076F140C077F170C11CF071C11DF0EE
:1010B80072C11EF073C11FF074C120F075C121F018
:1010C80076C122F077C123F02EEC1AF01CC058F13B
:1010D8001DC059F11EC05AF11FC05BF158C168F11B
:1010E80059C169F15AC16AF15BC16BF168C1B4F1C8
:1010F80069C1B5F16AC1B6F16BC1B7F1B4C190F17C
:10110800B5C191F1B6C192F1B7C193F1000E0101D9
:101118009015B46FF00E9115B56FFF0E9215B66F5E
:10112800FF0E9315B76FB4C168F1B5C169F1B6C1C7
:101138006AF1B7C16BF1A4C199F0A5C19AF0A6C133
:101148009BF0A7C19CF000019C359C339B339A33DC
:101158009933000E99159D6FF00E9A159E6FFF0E2C
:101168009B159F6FFF0E9C15A06F000E9D1101012E
:10117800906F000E00019E110101916F000E000199
:101188009F110101926F200E0001A0110101936FC0
:101198009CC199F09DC19AF09EC19BF09FC19CF0A3
:1011A800150ED890000199379A379B379C37E82E4F
:1011B800D5EF08F001019051000199259D6F0101BB
:1011C800915100019A219E6F0101925100019B21CA
:1011D8009F6F0101935100019C21A06F000E9D2576
:1011E8000101B46F000E00019E210101B56F400E90
:1011F80000019F210101B66F000E0001A02101012D
:10120800B76FB4C164F1B5C165F1B6C166F1B7C1D4
:1012180067F19CC199F09DC19AF00001D890993767
:101228009A37D89099379A37710E9925F66E7E0EAF
:101238009A21F76E0900F5CF39F00900F5CF3AF099
:101248000900F5CF3BF00A00F5CF3CF064C135F05A
:1012580065C136F066C137F067C138F07EEC2DF015
:1012680035C094F136C095F137C096F138C097F182
:101278006CC135F06DC136F06EC137F06FC138F012
:1012880094C139F095C13AF096C13BF097C13CF052
:101298007EEC2DF035C02CF136C02DF137C02EF183
:1012A80038C02FF164C120F065C121F066C122F079
:1012B80067C123F068C11CF069C11DF06AC11EF046
:1012C8006BC11FF02EEC1AF01CC039F01DC03AF0AB
:1012D8001EC03BF01FC03CF070C135F071C136F044
:1012E80072C137F073C138F07EEC2DF035C094F13F
:1012F80036C095F137C096F138C097F12CC120F06F
:101308002DC121F02EC122F02FC123F068C11CF09D
:1013180069C11DF06AC11EF06BC11FF02EEC1AF0F6
:101328001CC039F01DC03AF01EC03BF01FC03CF095
:1013380094C135F095C136F096C137F097C138F0B1
:101348007EEC2DF035C050F136C051F137C052F166
:1013580038C053F150C11CF051C11DF052C11EF0EC
:1013680053C11FF074C120F075C121F076C122F07D
:1013780077C123F02EEC1AF01CC028F11DC029F10A
:101388001EC02AF11FC02BF158C11CF059C11DF015
:101398005AC11EF05BC11FF058C120F059C121F09D
:1013A8005AC122F05BC123F02EEC1AF01CC088F160
:1013B8001DC089F11EC08AF11FC08BF1550E106E39
:1013C800320E116E6C0E126E3E0E136E420E206EB1
:1013D800F10E216E530E226E3E0E236E88C11CF054
:1013E80089C11DF08AC11EF08BC11FF02EEC1AF0C6
:1013F8001CC00CF01DC00DF01EC00EF01FC00FF079
:10140800CEEC17F00CC0A0F10DC0A1F10EC0A2F1F6
:101418000FC0A3F1050E106EA30E116E8B0E126E87
:101428003E0E136E88C120F089C121F08AC122F0D6
:101438008BC123F0A0C11CF0A1C11DF0A2C11EF0F8
:10144800A3C11FF02EEC1AF01CC00CF01DC00DF04B
:101458001EC00EF01FC00FF0CEEC17F00CC050F1FC
:101468000DC051F10EC052F10FC053F1AB0E106E0A
:10147800AA0E116EAA0E126E3E0E136E88C120F0CF
:1014880089C121F08AC122F08BC123F050C11CF020
:1014980051C11DF052C11EF053C11FF02EEC1AF0BD
:1014A8001CC00CF01DC00DF01EC00EF01FC00FF0C8
:1014B800CEEC17F00CC044F10DC045F10EC046F15A
:1014C8000FC047F1B70E106E6D0E116EDB0E126E67
:1014D8003E0E136E88C120F089C121F08AC122F026
:1014E8008BC123F044C11CF045C11DF046C11EF05C
:1014F80047C11FF02EEC1AF01CC00CF01DC00DF0F7
:101508001EC00EF01FC00FF0CEEC17F00CC030F16B
:101518000DC031F10EC032F10FC033F19A0E106ECA
:10152800990E116E190E126E3F0E136E88C120F0BF
:1015380089C121F08AC122F08BC123F030C11CF08F
:1015480031C11DF032C11EF033C11FF02EEC1AF06C
:101558001CC00CF01DC00DF01EC00EF01FC00FF017
:10156800CEEC17F00CC000F10DC001F10EC002F175
:101578000FC003F188C120F089C121F08AC122F08F
:101588008BC123F088C11CF089C11DF08AC11EF0EF
:101598008BC11FF02EEC1AF01CC004F11DC005F120
:1015A8001EC006F11FC007F100C11CF001C11DF0EB
:1015B80002C11EF003C11FF004C120F005C121F0D3
:1015C80006C122F007C123F02EEC1AF01CC048F126
:1015D8001DC049F11EC04AF11FC04BF128C120F0BF
:1015E80029C121F02AC122F02BC123F058C110F0E3
:1015F80059C111F05AC112F05BC113F068C10CF067
:1016080069C10DF06AC10EF06BC10FF0CEEC17F096
:101618000CC01CF00DC01DF00EC01EF00FC01FF056
:101628002EEC1AF01CC054F11DC055F11EC056F125
:101638001FC057F148C10CF049C10DF04AC10EF066
:101648004BC10FF054C110F055C111F056C112F042
:1016580057C113F0CEEC17F00CC048F10DC049F19A
:101668000EC04AF10FC04BF168C11CF069C11DF0F2
:101678006AC11EF06BC11FF068C120F069C121F07A
:101688006AC122F06BC123F02EEC1AF01CC088F15D
:101698001DC089F11EC08AF11FC08BF1000E106EAB
:1016A800000E116E400E126E400E136E88C10CF0C3
:1016B80089C10DF08AC10EF08BC10FF0CEEC17F086
:1016C8000CC054F10DC055F10EC056F10FC057F1C2
:1016D80054C10CF055C10DF056C10EF057C10FF0B2
:1016E80048C110F049C111F04AC112F04BC113F0C2
:1016F800CEEC17F00CC064F10DC065F10EC066F1B8
:101708000FC067F164C1B4F165C1B5F166C1B6F146
:1017180067C1B7F1B4C190F1B5C191F1B6C192F109
:10172800B7C193F1000E01019015B46FF00E911539
:10173800B56FFF0E9215B66FFF0E9315B76FB4C154
:1017480064F1B5C165F1B6C166F1B7C167F1000EC4
:10175800106E000E116E400E126EC00E136E64C134
:101768000CF065C10DF066C10EF067C10FF0CEEC4C
:1017780017F00CC008F10DC009F10EC00AF10FC036
:101788000BF188C139F089C13AF08AC13BF08BC1AD
:101798003CF008C135F009C136F00AC137F00BC179
:1017A80038F07EEC2DF035C034F136C035F137C055
:1017B80036F138C037F148C135F049C136F04AC171
:1017C80037F04BC138F034C139F035C13AF036C181
:1017D8003BF037C13CF07EEC2DF035C02CF136C023
:1017E8002DF137C02EF138C02FF168C11CF069C146
:1017F8001DF06AC11EF06BC11FF064C120F065C105
:1018080021F066C122F067C123F02EEC1AF01CC04B
:1018180070F11DC071F11EC072F11FC073F164C177
:1018280020F065C121F066C122F067C123F028C10C
:101838001CF029C11DF02AC11EF02BC11FF02EEC8F
:101848001AF01CC00CF01DC00DF01EC00EF01FC019
:101858000FF058C120F059C121F05AC122F05BC1E4
:1018680023F02CC11CF02DC11DF02EC11EF02FC17C
:101878001FF02EEC1AF01CC010F01DC011F01EC095
:1018880012F01FC013F0CEEC17F00CC074F10DC0AD
:1018980075F10EC076F10FC077F170C10CF071C10F
:1018A8000DF072C10EF073C10FF074C110F075C164
:1018B80011F076C112F077C113F0CEEC17F00CC01E
:1018C80098F10DC099F10EC09AF10FC09BF198C123
:1018D800B4F199C1B5F19AC1B6F19BC1B7F1B4C1E0
:1018E80090F1B5C191F1B6C192F1B7C193F1000E73
:1018F80001019015B46FF00E9115B56FFF0E92159A
:10190800B66FFF0E9315B76FB4C198F1B5C199F1D1
:10191800B6C19AF1B7C19BF170C139F071C13AF003
:1019280072C13BF073C13CF098C135F099C136F0F3
:101938009AC137F09BC138F07EEC2DF035C094F198
:1019480036C095F137C096F138C097F174C135F0BB
:1019580075C136F076C137F077C138F094C139F0E7
:1019680095C13AF096C13BF097C13CF07EEC2DF062
:1019780035C060F136C061F137C062F138C063F13B
:1019880098C11CF099C11DF09AC11EF09BC11FF0AF
:10199800000E206E400E216E760E226E3F0E236ED4
:1019A8002EEC1AF01CC018F11DC019F11EC01AF156
:1019B8001FC01BF14F0E206E380E216E760E226E60
:1019C8003F0E236E60C11CF061C11DF062C11EF0A4
:1019D80063C11FF02EEC1AF01CC010F01DC011F0EE
:1019E8001EC012F01FC013F0C60E206E230E216E0B
:1019F800F60E226EB80E236E98C11CF099C11DF028
:101A08009AC11EF09BC11FF02EEC1AF01CC00CF0FE
:101A18001DC00DF01EC00EF01FC00FF0CEEC17F069
:101A28000CC054F10DC055F10EC056F10FC057F15E
:101A380054C10CF055C10DF056C10EF057C10FF04E
:101A48009CC199F09DC19AF00001D89099379A37B6
:101A5800D89099379A37090E9925F66E7E0E9A21F5
:101A6800F76E0900F5CF10F00900F5CF11F0090065
:101A7800F5CF12F00A00F5CF13F0CEEC17F00CC03A
:101A88001CF10DC01DF10EC01EF10FC01FF17CC16D
:101A98000CF07DC10DF07EC10EF07FC10FF0010E7C
:101AA8006CEC21F00CC0ACF10DC0ADF10EC0AEF184
:101AB8000FC0AFF11CC110F01DC111F01EC112F012
:101AC8001FC113F018C10CF019C10DF01AC10EF0A6
:101AD8001BC10FF0CEEC17F00CC054F10DC055F13E
:101AE8000EC056F10FC057F19CC199F09DC19AF0F4
:101AF8000001D89099379A37D89099379A37110EAC
:101B08009925F66E7E0E9A21F76E0900F5CF10F032
:101B18000900F5CF11F00900F5CF12F00A00F5CF52
:101B280013F054C10CF055C10DF056C10EF057C159
:101B38000FF0CEEC17F00CC00CF10DC00DF10EC07B
:101B48000EF10FC00FF10CC10CF00DC10DF00EC15C
:101B58000EF00FC10FF0ACC110F0ADC111F0AEC165
:101B680012F0AFC113F0CEEC17F00CC080F10DC02D
:101B780081F10EC082F10FC083F180C1B4F181C13F
:101B8800B5F182C1B6F183C1B7F1B4C190F1B5C165
:101B980091F1B6C192F1B7C193F1000E0101901510
:101BA800B46FF00E9115B56FFF0E9215B66FFF0E5C
:101BB8009315B76FB4C180F1B5C181F1B6C182F197
:101BC800B7C183F1ACC139F0ADC13AF0AEC13BF059
:101BD800AFC13CF080C135F081C136F082C137F029
:101BE80083C138F07EEC2DF035C094F136C095F104
:101BF80037C096F138C097F19CC199F09DC19AF011
:101C08000001D89099379A37D89099379A37110E9A
:101C18009925F66E7E0E9A21F76E0900F5CF39F0F8
:101C28000900F5CF3AF00900F5CF3BF00A00F5CFEF
:101C38003CF094C135F095C136F096C137F097C1A4
:101C480038F07EEC2DF035C034F136C035F137C0B0
:101C580036F138C037F118C139F019C13AF01AC154
:101C68003BF01BC13CF034C135F035C136F036C10C
:101C780037F037C138F07EEC2DF035C010F136C0A2
:101C880011F137C012F138C013F11CC135F01DC174
:101C980036F01EC137F01FC138F010C139F011C13C
:101CA8003AF012C13BF013C13CF07EEC2DF035C088
:101CB80014F136C015F137C016F138C017F195C0C8
:101CC800B4F196C0B5F197C0B6F198C0B7F1B4C1F8
:101CD80090F1B5C191F1B6C192F1B7C193F1000E7F
:101CE80001019015B46FF00E9115B56FFF0E9215A6
:101CF800B66FFF0E9315B76FB4C120F1B5C121F1CE
:101D0800B6C122F1B7C123F180C120F081C121F011
:101D180082C122F083C123F020C139F021C13AF0F9
:101D280022C13BF023C13CF095C035F096C036F097
:101D380097C037F098C038F07EEC2DF035C01CF015
:101D480036C01DF037C01EF038C01FF02EEC1AF058
:101D58001CC038F11DC039F11EC03AF11FC03BF15B
:101D680038C10CF039C10DF03AC10EF03BC10FF08B
:101D780014C120F015C121F016C122F017C123F0BB
:101D880095C01CF096C01DF097C01EF098C01FF0BB
:101D98002EEC1AF01CC010F01DC011F01EC012F07D
:101DA8001FC013F0CEEC17F00CC060F10DC061F14C
:101DB8000EC062F10FC063F120C11CF021C11DF0FB
:101DC80022C11EF023C11FF080C120F081C121F083
:101DD80082C122F083C123F02EEC1AF01CC098F1C6
:101DE8001DC099F11EC09AF11FC09BF160C10CF093
:101DF80061C10DF062C10EF063C10FF098C110F01F
:101E080099C111F09AC112F09BC113F0CEEC17F0F2
:101E18000CC0B0F10DC0B1F10EC0B2F10FC0B3F1FA
:101E2800B0C1B4F1B1C1B5F1B2C1B6F1B3C1B7F146
:101E3800B4C1A8F1B5C1A9F1B6C1AAF1B7C1ABF156
:101E48000101ABBF34EF0FF0A805000EA959000E31
:101E5800AA59430EAB59D8A034EF0FF036EF0FF064
:101E68006CEF0FF0CA0E206EF20E216E490E226E34
:101E7800710E236E84C11CF085C11DF086C11EF051
:101E880087C11FF02EEC1AF01CC0A0F11DC0A1F1F3
:101E98001EC0A2F11FC0A3F1A0C11CF0A1C11DF07A
:101EA800A2C11EF0A3C11FF0CA0E206EF20E216E51
:101EB800490E226E710E236E2EEC1AF01CC091F0A2
:101EC8001DC092F01EC093F01FC094F06DEF15F086
:101ED800430EAB19A811A911AA11D8A476EF0FF0D7
:101EE80078EF0FF0EBEF0FF098C139F099C13AF0A5
:101EF8009AC13BF09BC13CF0B0C135F0B1C136F09E
:101F0800B2C137F0B3C138F07EEC2DF035C03DF0EA
:101F180036C03EF037C03FF038C040F03C0E106E7F
:101F2800AA0E116E380E126E330E136E60C10CF0CD
:101F380061C10DF062C10EF063C10FF0CEEC17F075
:101F48000CC041F00DC042F00EC043F00FC044F089
:101F5800A6EC24F0D8B0B3EF0FF0B5EF0FF0B5EF63
:101F680010F0CA0E206EF20E216E490E226E710E0E
:101F7800236E84C11CF085C11DF086C11EF087C187
:101F88001FF02EEC1AF01CC0A0F11DC0A1F11EC05C
:101F9800A2F11FC0A3F1A0C11CF0A1C11DF0A2C1F4
:101FA8001EF0A3C11FF0CA0E206EF20E216E490E5C
:101FB800226E710E236E2EEC1AF01CC091F01DC01B
:101FC80092F01EC093F01FC094F06DEF15F0FF0E55
:101FD800A8150001996FFF0E0101A91500019A6F5C
:101FE800FF0E0101AA1500019B6F7F0E0101AB15C1
:101FF80000019C6F9CBF0DEF10F09905000E9A59D7
:10200800160E9B59430E9C59D8A00DEF10F00FEFF8
:1020180010F045EF10F0600E206E420E216EA20EF9
:10202800226E0D0E236E84C11CF085C11DF086C181
:102038001EF087C11FF02EEC1AF01CC0A0F11DC0C5
:10204800A1F11EC0A2F11FC0A3F1A0C11CF0A1C143
:102058001DF0A2C11EF0A3C11FF0600E206E420E3B
:10206800216EA20E226E0D0E236E2EEC1AF01CC0ED
:1020780091F01DC092F01EC093F01FC094F06DEF58
:1020880015F0160E0101AA1909E1C30EAB19A81122
:10209800A911D8A452EF10F054EF10F0B5EF10F0DA
:1020A80098C139F099C13AF09AC13BF09BC13CF014
:1020B800B0C135F0B1C136F0B2C137F0B3C138F0B4
:1020C8007EEC2DF035C03DF036C03EF037C03FF015
:1020D80038C040F060C141F061C142F062C143F0D4
:1020E80063C144F0A6EC24F0D8A07DEF10F07FEF98
:1020F80010F0B5EF10F0600E206E420E216EA20EA9
:10210800226E0D0E236E84C11CF085C11DF086C1A0
:102118001EF087C11FF02EEC1AF01CC0A0F11DC0E4
:10212800A1F11EC0A2F11FC0A3F1A0C11CF0A1C162
:102138001DF0A2C11EF0A3C11FF0600E206E420E5A
:10214800216EA20E226E0D0E236E2EEC1AF01CC00C
:1021580091F01DC092F01EC093F01FC094F06DEF77
:1021680015F0FF0E0101A815246FFF0EA915256FA4
:10217800FF0EAA15266F7F0EAB15276F170E0001ED
:10218800996F24C19AF025C19BF026C19CF027C104
:102198009DF09967D2EF10F0DAEF10F09D359D337E
:1021A8009C339B339A33992FCDEF10F0810E0001A9
:1021B8009A2501019C6FFF0E00019B2101019D6F73
:1021C800FF0E00019C2101019E6FFF0E00019D2161
:1021D80001019F6F000E7C6F000E7D6F000E7E6FF9
:1021E800000E7F6F27BF05EF11F02405000E25595B
:1021F800000E26593F0E2759D8A005EF11F007EF1A
:1022080011F00BEF12F09CC199F0010E0001992713
:10221800000E9A6F000E9B6F800E9C6F000E9D6FD4
:10222800996719EF11F021EF11F09D359D339C331B
:102238009B339A33992F14EF11F00101A851000133
:102248009A2501017C6FA95100019B2101017D6F35
:10225800AA5100019C2101017E6FAB5100019D2113
:1022680001017F6F810E0001996FFF0E9A6FFF0EBB
:102278009B6FFF0E9C6F170E9D6F7CC19EF07DC1FA
:102288009FF07EC1A0F07FC1A1F09D674EEF11F0D5
:1022980056EF11F0A135A133A0339F339E339D2F04
:1022A80049EF11F000019E51992501019C6F000E24
:1022B80000019A2101019D6F000E00019B2101017F
:1022C8009E6F000E00019C2101019F6F9CC199F037
:1022D800FF0E00019A6FFF0E9B6F7F0E9C6F000E22
:1022E8009D6F99677AEF11F082EF11F09D359D335C
:1022F8009C339B339A33992F75EF11F000019A1D87
:102308009E6F9B1D9F6F9C1DA06F9D1DA16F01015E
:102318007C5100019E150101B46F7D5100019F158C
:102328000101B56F7E510001A0150101B66F7F5103
:102338000001A1150101B76FB4C1ACF1B5C1ADF190
:10234800B6C1AEF1B7C1AFF19C5117080001996F42
:10235800FF0E01017C1500019A6FFF0E01017D152A
:1023680000019B6F7F0E01017E1500019C6F000E1E
:1023780001017F1500019D6F000E9A119E6F000EDE
:102388009B119F6F800E9C11A06F000E9D11A16F75
:102398009967D1EF11F0D9EF11F0A135A133A0332E
:1023A8009F339E33992FCCEF11F09EC07CF19FC0D4
:1023B8007DF1A0C07EF1A1C07FF10101ABBFE9EFC3
:1023C80011F0E7EF11F0F1EF11F07F1F7E1F7D1F75
:1023D8007C6D000E7D237E237F2398C135F099C143
:1023E80036F09AC137F09BC138F0ACC139F0ADC1B5
:1023F8003AF0AEC13BF0AFC13CF07EEC2DF035C0F9
:1024080098F136C099F137C09AF138C09BF160C194
:102418000CF061C10DF062C10EF063C10FF098C1FC
:1024280010F099C111F09AC112F09BC113F0CEECD3
:1024380017F00CC0ACF10DC0ADF10EC0AEF10FC07D
:10244800AFF1ACC1B4F1ADC1B5F1AEC1B6F1AFC138
:10245800B7F1B4C190F1B5C191F1B6C192F1B7C16C
:1024680093F1000E01019015B46F800E9115B56FB0
:10247800FF0E9215B66FFF0E9315B76FB4C1ACF18E
:10248800B5C1ADF1B6C1AEF1B7C1AFF1ACC11CF089
:10249800ADC11DF0AEC11EF0AFC11FF0000E206E21
:1024A800720E216E310E226E3F0E236E2EEC1AF044
:1024B8001CC070F11DC071F11EC072F11FC073F114
:1024C80098C139F099C13AF09AC13BF09BC13CF0F0
:1024D800ACC135F0ADC136F0AEC137F0AFC138F0A0
:1024E8007EEC2DF035C094F136C095F137C096F1E9
:1024F80038C097F1180E206E720E216E310E226EC2
:102508003F0E236E94C139F095C13AF096C13BF065
:1025180097C13CF060C135F061C136F062C137F057
:1025280063C138F07EEC2DF035C01CF036C01DF0CC
:1025380037C01EF038C01FF02EEC1AF01CC03CF15A
:102548001DC03DF11EC03EF11FC03FF13CC10CF063
:102558003DC10DF03EC10EF03FC10FF08C0E206E54
:10256800BE0E216EBF0E226E350E236EACC11CF05E
:10257800ADC11DF0AEC11EF0AFC11FF02EEC1AF0B8
:102588001CC010F01DC011F01EC012F01FC013F0C7
:10259800CEEC17F00CC074F10DC075F10EC076F1D9
:1025A8000FC077F170C10CF071C10DF072C10EF05F
:1025B80073C10FF074C110F075C111F076C112F03B
:1025C80077C113F0CEEC17F00CC0B0F10DC0B1F12B
:1025D8000EC0B2F10FC0B3F170C139F071C13AF059
:1025E80072C13BF073C13CF0B0C135F0B1C136F0F7
:1025F800B2C137F0B3C138F07EEC2DF035C094F19C
:1026080036C095F137C096F138C097F174C135F0EE
:1026180075C136F076C137F077C138F094C139F01A
:1026280095C13AF096C13BF097C13CF07EEC2DF095
:1026380035C040F136C041F137C042F138C043F1EE
:10264800B0C11CF0B1C11DF0B2C11EF0B3C11FF082
:10265800B0C120F0B1C121F0B2C122F0B3C123F062
:102668002EEC1AF01CC0ACF11DC0ADF11EC0AEF1CD
:102678001FC0AFF10E0E106EEA0E116EDD0E126E57
:10268800B50E136E4C0E206EBB0E216E310E226EEF
:10269800330E236EACC11CF0ADC11DF0AEC11EF0EF
:1026A800AFC11FF02EEC1AF01CC00CF01DC00DF0CD
:1026B8001EC00EF01FC00FF0CEEC17F00CC0A0F13A
:1026C8000DC0A1F10EC0A2F10FC0A3F1550E106EFE
:1026D800B30E116E8A0E126E380E136EACC120F056
:1026E800ADC121F0AEC122F0AFC123F0A0C11CF0F2
:1026F800A1C11DF0A2C11EF0A3C11FF02EEC1AF05B
:102708001CC00CF01DC00DF01EC00EF01FC00FF055
:10271800CEEC17F00CC050F10DC051F10EC052F1C3
:102728000FC053F1610E106E0B0E116E360E126E45
:10273800BB0E136EACC120F0ADC121F0AEC122F0CA
:10274800AFC123F050C11CF051C11DF052C11EF0A1
:1027580053C11FF02EEC1AF01CC00CF01DC00DF078
:102768001EC00EF01FC00FF0CEEC17F00CC044F1E5
:102778000DC045F10EC046F10FC047F1AB0E106E0B
:10278800AA0E116E2A0E126E3E0E136EACC120F008
:10279800ADC121F0AEC122F0AFC123F044C11CF09D
:1027A80045C11DF046C11EF047C11FF02EEC1AF0BE
:1027B8001CC00CF01DC00DF01EC00EF01FC00FF0A5
:1027C800CEEC17F00CC030F10DC031F10EC032F173
:1027D8000FC033F1B0C135F0B1C136F0B2C137F036
:1027E800B3C138F0ACC120F0ADC121F0AEC122F0C8
:1027F800AFC123F030C11CF031C11DF032C11EF051
:1028080033C11FF02EEC1AF01CC039F01DC03AF08D
:102818001EC03BF01FC03CF07EEC2DF035C080F1AF
:1028280036C081F137C082F138C083F1000E106ED6
:10283800000E116E000E126EC00E136E80C10CF0E9
:1028480081C10DF082C10EF083C10FF0CEEC17F0FC
:102858000CC041F00DC042F00EC043F00FC044F070
:1028680080C120F081C121F082C122F083C123F010
:10287800B0C11CF0B1C11DF0B2C11EF0B3C11FF050
:102888002EEC1AF01CC03DF01DC03EF01EC03FF0FB
:102898001FC040F043EC1CF03DC038F13EC039F198
:1028A8003FC03AF140C03BF140C110F041C111F0C6
:1028B80042C112F043C113F040C120F041C121F0E0
:1028C80042C122F043C123F0B0C11CF0B1C11DF0D8
:1028D800B2C11EF0B3C11FF02EEC1AF01CC00CF0F0
:1028E8001DC00DF01EC00EF01FC00FF0CEEC17F08B
:1028F8000CC03CF10DC03DF10EC03EF10FC03FF1E0
:1029080038C135F039C136F03AC137F03BC138F03B
:102918003CC139F03DC13AF03EC13BF03FC13CF00B
:102928007EEC2DF035C048F136C049F137C04AF188
:1029380038C04BF1B0C139F0B1C13AF0B2C13BF087
:10294800B3C13CF048C135F049C136F04AC137F04F
:102958004BC138F07EEC2DF035C094F136C095F1BE
:1029680037C096F138C097F1000E356E000E366EFE
:10297800800E376E3F0E386E94C139F095C13AF02B
:1029880096C13BF097C13CF07EEC2DF035C0B0F11C
:1029980036C0B1F137C0B2F138C0B3F1B0C1B4F14B
:1029A800B1C1B5F1B2C1B6F1B3C1B7F1B4C1A8F1C3
:1029B800B5C1A9F1B6C1AAF1B7C1ABF17CC199F013
:1029C8007DC19AF07EC19BF07FC19CF0170ED89014
:1029D800000199379A379B379C37E82EEBEF14F0B4
:1029E80099510101A82700019A510101A923000169
:1029F8009B510101AA2300019C510101AB23170E31
:102A08000001996FA8C19AF0A9C19BF0AAC19CF0D6
:102A1800ABC19DF0996713EF15F01BEF15F09D35CD
:102A28009D339C339B339A33992F0EEF15F0000199
:102A38009DBF2BEF15F09D519C119B1106E19A0546
:102A4800D8B029EF15F02BEF15F043EF15F0B0C112
:102A580035F0B1C136F0B2C137F0B3C138F07CC13E
:102A680039F07DC13AF066EC1FF035C0B0F136C0E0
:102A7800B1F137C0B2F138C0B3F153EF15F0A8C1C6
:102A8800B4F1A9C1B5F1AAC1B6F1ABC1B7F1B4C1EE
:102A9800B0F1B5C1B1F1B6C1B2F1B7C1B3F184C1FA
:102AA8001CF085C11DF086C11EF087C11FF0B0C1A2
:102AB80020F0B1C121F0B2C122F0B3C123F02EEC55
:102AC8001AF01CC091F01DC092F01EC093F01FC0F8
:102AD80094F0120064C075F065C076F066C077F0B7
:102AE80067C078F075C08DF076C08EF077C08FF033
:102AF80078C090F0000E00018D15686F000E8E15DD
:102B0800696F800E8F156A6F7F0E90156B6F800E40
:102B18006A1909E17F0E6B1968116911D8A497EF3A
:102B280015F099EF15F0C7EF15F064C020F065C0F7
:102B380021F066C022F067C023F064C01CF065C0B5
:102B48001DF066C01EF067C01FF02EEC1AF01CC006
:102B58000CF01DC00DF01EC00EF01FC00FF064C0B9
:102B680010F065C011F066C012F067C013F0CEEC2B
:102B780017F00CC064F00DC065F00EC066F00FC011
:102B880067F0CDEF17F090BFD6EF15F090518F1189
:102B98008E1106E18D05D8B0D4EF15F0D6EF15F0FB
:102BA80012EF16F0FF0E8D15686FFF0E8E15696F08
:102BB800FF0E8F156A6F7F0E90156B6F6851691144
:102BC8006A116B11D8A4EBEF15F0EDEF15F0F7EFE4
:102BD80015F064C064F065C065F066C066F067C053
:102BE80067F0CDEF17F090BFFEEF15F0FCEF15F092
:102BF80012EF16F0000ED96F210ED86FFB0E0C6E77
:102C08007E0E0D6E7EEC2FF00CC064F00DC065F0EA
:102C18000EC066F00FC067F0CDEF17F0170E686FA3
:102C28008DC069F08EC06AF08FC06BF090C06CF0F8
:102C3800686721EF16F029EF16F06C356C336B33AB
:102C48006A336933682F1CEF16F069C085F06AC0D3
:102C580086F06BC087F06CC088F000018551861142
:102C680087118811D8A43BEF16F03DEF16F06DEFF1
:102C780016F0000E716F000E726F000E736F000E6B
:102C8800746F52EF16F0D8908D378E378F37903794
:102C9800010E7127000E7223732374238FAF57EF31
:102CA80016F059EF16F047EF16F0FF0E7125686F12
:102CB800FF0E7221696FFF0E73216A6FFF0E742178
:102CC8006B6F6851855F6951865B6A51875B6B5191
:102CD800885B810E8527FF0E8623FF0E8723FF0E54
:102CE8008823FF0E8D15686FFF0E8E15696F7F0E96
:102CF8008F156A6F000E90156B6F000E68118D6F3F
:102D0800000E69118E6F800E6A118F6F000E6B11A5
:102D1800906F85A192EF16F094EF16F09CEF16F0E5
:102D28008D518D278E518E238F518F239051902353
:102D3800883588338733863385338D518D278E5177
:102D48008E238F518F2390519023000E6D6F000EAC
:102D58006E6F000E6F6F000E706F6DC079F06EC0F1
:102D68007AF06FC07BF070C07CF0000E896F000EA7
:102D78008A6F000E8B6F010E8C6F0BEF17F06D5181
:102D880089257D6F6E518A217E6F6F518B217F6FF0
:102D980070518C21806F7D518D5D7E518E597F5190
:102DA8008F599051800A686F8051800A6859D8A05D
:102DB800E0EF16F0E2EF16F0FEEF16F07D518925F0
:102DC8006D6F7E518A216E6F7F518B216F6F80519D
:102DD8008C21706F7D518D5F7E518E5B7F518F5B33
:102DE8008051905B895179278A517A238B517B23B3
:102DF8008C517C238D518D278E518E238F518F239B
:102E080090519023D8908C338B338A3389338951EE
:102E18008A118B118C11D8A414EF17F016EF17F044
:102E2800C3EF16F08D518E118F119011D8B41FEF8A
:102E380017F021EF17F082EF17F0000E816F000EE8
:102E4800826F800E836F3F0E846F81C03DF082C019
:102E58003EF083C03FF084C040F0000E416E000E8B
:102E6800426E800E436E3F0E446EA6EC24F0D8A04E
:102E780040EF17F042EF17F082EF17F0000E000155
:102E8800816F000E826F800E836F3F0E846F000E7D
:102E98003D6E000E3E6E800E3F6E3F0E406E81C04E
:102EA80041F082C042F083C043F084C044F0A6ECF5
:102EB80024F0D8B062EF17F064EF17F06DEF17F059
:102EC800020E00017927000E7A237B237C2382EFF0
:102ED80017F0010E00017915686F000E7A15696FF9
:102EE800000E7B156A6F000E7C156B6F6851792791
:102EF80069517A236A517B236B517C2379C068F02E
:102F08007AC069F07BC06AF07CC06BF000016B3559
:102F18006B336A3369336833000E68258D6F000E92
:102F280069218E6F000E6A218F6F3F0E6B21906FA3
:102F380085C068F086C069F087C06AF088C06BF009
:102F4800170ED890683769376A376B37E82EA5EFC0
:102F580017F068518D2769518E236A518F236B5161
:102F680090238DC075F08EC076F08FC077F090C03A
:102F780078F075C081F076C082F077C083F078C0B1
:102F880084F081C064F082C065F083C066F084C0BC
:102F980067F012000F50800B186E0F500F241A6E36
:102FA8000EAED9EF17F0DBEF17F0DCEF17F01A8051
:102FB8001A50D8B4E2EF17F0E4EF17F0F9EF17F072
:102FC8001A28D8A4EAEF17F0ECEF17F0F4EF17F08F
:102FD800000E0C6E000E0D6E000E0E6E000E0F6EC3
:102FE8000E8E000E0F6E01EF18F0000E0C6E000E24
:102FF8000D6E000E0E6E000E0F6E1350800B196EC4
:1030080018501918D8B40BEF18F00DEF18F00EEF90
:1030180018F0188C13501324196E12AE16EF18F00E
:1030280018EF18F019EF18F019801950D8B41FEFDD
:1030380018F021EF18F036EF18F01928D8A427EF68
:1030480018F029EF18F031EF18F0000E106E000E8E
:10305800116E000E126E000E136E128E000E136E9D
:103068003EEF18F0000E106E000E116E000E126E7C
:10307800000E136E1A50195CD8B045EF18F047EFE0
:1030880018F06EEF18F018AC4CEF18F04EEF18F07F
:1030980050EF18F0800E181A1AC01BF019C01AF059
:1030A8001BC019F00CC01BF010C00CF01BC010F0B6
:1030B8000DC01BF011C00DF01BC011F00EC01BF0AD
:1030C80012C00EF01BC012F00FC01BF013C00FF09F
:1030D8001BC013F0000E1B6E1A5019C014F0156AAD
:1030E800145E000E155A15BE83EF18F0155009E14D
:1030F8001A0E145CD8A083EF18F085EF18F0BCEF17
:1031080018F00C500D100E100F10D8A48EEF18F0F8
:1031180091EF18F0010E92EF18F0000E1B6E000EE2
:103128000C6E000E0D6E000E0E6E000E0F6E19C0A6
:103138001AF0C5EF18F01BA0A4EF18F0A6EF18F0CE
:10314800ACEF18F0D8901B3001091B6EAEEF18F0E9
:10315800D8901B320CA0B3EF18F0B5EF18F0B6EF0B
:1031680018F01B8E0F340F320E320D320C321A2A21
:1031780019501A5CD8A0C3EF18F0C5EF18F09FEFEC
:1031880018F018BCCAEF18F0CCEF18F00CEF19F0D3
:103198001A50D8A4D2EF18F0D4EF18F0DEEF18F0D8
:1031A800000E0C6E000E0D6E000E0E6E000E0F6EF1
:1031B8002DEF1AF010500C2611500D2212500E222D
:1031C80013500F220FA0EBEF18F0EDEF18F099EF66
:1031D80019F01BA0F2EF18F0F4EF18F0FAEF18F05E
:1031E800D8901B3001091B6EFCEF18F0D8901B32E9
:1031F8000CA001EF19F003EF19F004EF19F01B8E82
:103208000F340F320E320D320C321A2A99EF19F0A0
:1032180010500C5C11500D5812500E580F50800A67
:10322800146E1350800A1458D8B01DEF19F01FEF10
:1032380019F04AEF19F00C50105C146E0D5011582B
:10324800156E0E501258166E0F501358176EFF0E4B
:1032580014240C6EFF0E15200D6EFF0E16200E6E38
:10326800FF0E17200F6E800E181A1B6C1B50D8A467
:1032780040EF19F042EF19F052EF19F0010E0C2649
:10328800000E0D220E220F2252EF19F010500C5E84
:1032980011500D5A12500E5A13500F5A0C500D104F
:1032A8000E100F10D8A45BEF19F05DEF19F092EF34
:1032B80019F01B50D8A463EF19F065EF19F092EFDD
:1032C80019F0000E0C6E000E0D6E000E0E6E000E44
:1032D8000F6E2DEF1AF0D8900C360D360E360F36CD
:1032E8001BAE79EF19F07BEF19F07CEF19F00C8029
:1032F8001BA081EF19F083EF19F087EF19F0D88040
:103308001B3689EF19F0D8901B361A50D8B48FEFB6
:1033180019F091EF19F092EF19F01A060EAE97EF27
:1033280019F099EF19F06FEF19F0000E196E1BAE36
:10333800A0EF19F0A2EF19F0BAEF19F01BC014F0C2
:103348007F0E1416D8B4ABEF19F0ADEF19F0B1EF4A
:1033580019F0010E196EBAEF19F00CA0B6EF19F0BA
:10336800B8EF19F0BAEF19F0ADEF19F01950D8B459
:10337800C0EF19F0C2EF19F0EDEF19F0010E0C26AD
:10338800000E0D220E220F220FA0CDEF19F0CFEF65
:1033980019F0EDEF19F00CC014F00DC015F00EC0C7
:1033A80016F00FC017F017341732163215321432D0
:1033B80014C00CF015C00DF016C00EF017C00FF0B9
:1033C8001A28D8B4EAEF19F0ECEF19F0EDEF19F07C
:1033D8001A2A1A28D8B4F3EF19F0F5EF19F0FDEF0F
:1033E80019F01A50D8A4FBEF19F0FDEF19F00FEF00
:1033F8001AF0000E0C6E000E0D6E000E0E6E000E12
:103408000F6E1A50D8A40BEF1AF00DEF1AF00FEF49
:103418001AF0000E186E1AA014EF1AF016EF1AF030
:1034280019EF1AF00E8E1AEF1AF00E9ED8901A3075
:103438000F6E18AE22EF1AF024EF1AF025EF1AF0EB
:103448000F8E0CC00CF00DC00DF00EC00EF00FC0AA
:103458000FF012001F50800B286E1F501F242E6E75
:103468001EAE39EF1AF03BEF1AF03CEF1AF02E803F
:103478002E50D8B442EF1AF044EF1AF057EF1AF072
:103488002E28D8A44AEF1AF04CEF1AF054EF1AF08D
:10349800000E1C6E000E1D6E000E1E6E000E1F6EBE
:1034A8001E8E5FEF1AF0000E1C6E000E1D6E000ED1
:1034B8001E6E000E1F6E2350800B281A23502324E3
:1034C800296E22AE6AEF1AF06CEF1AF06DEF1AF05F
:1034D80029802950D8B473EF1AF075EF1AF088EFE5
:1034E8001AF02928D8A47BEF1AF07DEF1AF085EF9F
:1034F8001AF0000E206E000E216E000E226E000ED5
:10350800236E228E90EF1AF0000E206E000E216EB0
:10351800000E226E000E236E2950D8B496EF1AF0D2
:1035280098EF1AF0A0EF1AF02E50D8A49EEF1AF0D8
:10353800A0EF1AF0AAEF1AF0000E1C6E000E1D6E16
:10354800000E1E6E000E1F6E42EF1CF022501C0271
:10355800F3CF33F0F4CF34F033502A6E2B6A2C6A51
:103568002D6A34502F6E306A316A326A21501D023A
:10357800F3CF33F0F4CF34F033502A26000E2B2249
:103588002C222D2234502F26000E302231223222B6
:1035980020501E02F3CF33F0F4CF34F033502A26F4
:1035A800000E2B222C222D2234502F26000E3022E2
:1035B800312232222CC02DF02BC02CF02AC02BF047
:1035C8002A6A20501D02F3CF33F0F4CF34F0335081
:1035D8002A2634502B22000E2C22000E2D22215098
:1035E8001C02F3CF33F0F4CF34F033502A26345092
:1035F8002B22000E2C22000E2D222CC02DF02BC0C9
:103608002CF02AC02BF02A6A20501C02F3CF33F08A
:10361800F4CF34F033502A2634502B22000E2C22BB
:10362800000E2D2222501D02F3CF33F0F4CF34F0D8
:1036380033502F2634503022000E3122000E322211
:1036480021501E02F3CF33F0F4CF34F033502F263D
:1036580034503022000E3122000E322222501E0237
:10366800F3CF33F0F4CF34F03350246E3450256E5A
:10367800266A276A26C027F025C026F024C025F030
:10368800246A24502F2625503022265031222750D4
:1036980032222AC024F02BC025F02CC026F02DC0E1
:1036A80027F0190E5DEF1BF0D8902732263225320D
:1036B8002432E82E58EF1BF024502F2625503022B4
:1036C80026503122275032222CC02DF02BC02CF04E
:1036D8002AC02BF02A6A29502EC024F0256A2426F5
:1036E800000E2522820E2424336EFF0E2520346E10
:1036F80093EF1BF0D8902F363036313632362DAE58
:1037080088EF1BF08AEF1BF08BEF1BF02F80D8900F
:103718002A362B362C362D363306D8A0340631AE51
:1037280098EF1BF09AEF1BF07EEF1BF0000E296E4E
:103738002DAEA1EF1BF0A3EF1BF0C7EF1BF0FF0EA0
:103748002A14246EFF0E2B14256EFF0E2C14266EE1
:103758007F0E2D14276E2450251026102710D8B45C
:10376800B8EF1BF0BAEF1BF0BEEF1BF0010E296E8D
:10377800C7EF1BF02FA0C3EF1BF0C5EF1BF0C7EF7F
:103788001BF0BAEF1BF02950D8B4CDEF1BF0CFEFE8
:103798001BF0F3EF1BF0010E2F26000E3022312212
:1037A800322232A0DAEF1BF0DCEF1BF0F3EF1BF054
:1037B8002FC024F030C025F031C026F032C027F0E9
:1037C8002734273226322532243224C02FF025C050
:1037D80030F026C031F027C032F0334A342A34BEE4
:1037E800FEEF1BF0345008E13328D8A0FEEF1BF0A1
:1037F80000EF1CF00AEF1CF0000E2F6E000E306E6A
:10380800800E316E7F0E326E38EF1CF034BE17EF2B
:103818001CF0345006E13304D8B015EF1CF017EF54
:103828001CF023EF1CF0000E2F6E000E306E000E01
:10383800316E000E326E000E286E38EF1CF033C069
:103848002EF0FF0E2F16FF0E30167F0E3116000ECB
:1038580032162EA032EF1CF034EF1CF035EF1CF0BE
:10386800318ED8902E30326E285032122FC01CF074
:1038780030C01DF031C01EF032C01FF012004050A1
:10388800800B0001686F405040246F6F3FAE4FEFD0
:103898001CF051EF1CF052EF1CF06F816F51D8B43F
:1038A80058EF1CF05AEF1CF06FEF1CF06F29D8A4EA
:1038B80060EF1CF062EF1CF06AEF1CF0000E3D6E2A
:1038C800000E3E6E000E3F6E000E406E3F8E000EE4
:1038D800406E77EF1CF0000E3D6E000E3E6E000E3F
:1038E8003F6E000E406E4450800B681B44504424C9
:1038F800706F43AE82EF1CF084EF1CF085EF1CF074
:1039080070817051D8B48BEF1CF08DEF1CF0A2EFD2
:103918001CF07029D8A493EF1CF095EF1CF09DEFD4
:103928001CF0000E416E000E426E000E436E000E3B
:10393800446E438E000E446EAAEF1CF0000E416EDA
:10394800000E426E000E436E000E446E415042104F
:1039580043104410D8A4B3EF1CF0B5EF1CF0CDEF22
:103968001CF0000E3D6E000E3E6E000E3F6E000E07
:10397800406E800E3F127F0E4012685140123DC0CB
:103988003DF03EC03EF03FC03FF040C040F010EF79
:103998001EF06F51D8A4D3EF1CF0D5EF1CF0DFEF69
:1039A8001CF0000E3D6E000E3E6E000E3F6E000EC7
:1039B800406E10EF1EF070516FC060F0616B605F79
:1039C800000E615B7F0E6025696F000E61216A6FD2
:1039D8003DC064F03EC065F03FC066F040C067F08F
:1039E800000E3D6E000E3E6E000E3F6E000E406EE5
:1039F800000E6B6F000E6C6F000E6D6F000E6E6F19
:103A0800000E706F40EF1DF07051D8B40EEF1DF02E
:103A180010EF1DF027EF1DF0D89064376537663733
:103A28006737D8903D363E363F3640366EAF1FEF8B
:103A38001DF021EF1DF022EF1DF03D80D8906B376F
:103A48006C376D376E374150645D4250655943504D
:103A5800665944506759D8A034EF1DF036EF1DF071
:103A68003FEF1DF06E8D4150645F4250655B4350DF
:103A7800665B4450675B702B190E706546EF1DF04E
:103A880048EF1DF008EF1DF06451651166116711CC
:103A9800D8B451EF1DF053EF1DF06BEF1DF06B81A3
:103AA8006BEF1DF0D8903D363E363F3640366EAF50
:103AB80060EF1DF062EF1DF063EF1DF03D80D890C0
:103AC8006B376C376D376E376907D8A06A073FAE1A
:103AD80070EF1DF072EF1DF056EF1DF0000E706FC5
:103AE8006EAF79EF1DF07BEF1DF09FEF1DF0FF0E1D
:103AF8006B15606FFF0E6C15616FFF0E6D15626FB1
:103B08007F0E6E15636F6051611162116311D8B435
:103B180090EF1DF092EF1DF096EF1DF0010E706F03
:103B28009FEF1DF03DA09BEF1DF09DEF1DF09FEF57
:103B38001DF092EF1DF07051D8B4A5EF1DF0A7EF5E
:103B48001DF0CBEF1DF0010E3D26000E3E223F2258
:103B5800402240A0B2EF1DF0B4EF1DF0CBEF1DF0F6
:103B68003DC060F03EC061F03FC062F040C063F00D
:103B78006335633362336133603360C03DF061C0E5
:103B88003EF062C03FF063C040F0694B6A2B6ABFE9
:103B9800D6EF1DF06A5108E16929D8A0D6EF1DF0CB
:103BA800D8EF1DF0E3EF1DF0000E6A6F6969000E93
:103BB8003D6E000E3E6E000E3F6E000E406E6ABFF8
:103BC800F0EF1DF06A5106E16905D8B0EEEF1DF07F
:103BD800F0EF1DF0FEEF1DF0000E6A6F000E696F2A
:103BE800000E3D6E000E3E6E000E3F6E000E406EE3
:103BF800000E686F69C06FF06FA105EF1EF007EF48
:103C08001EF00AEF1EF03F8E0BEF1EF03F9ED8907D
:103C18006F31406EC1EF1CF01200000E0001B06F52
:103C2800000EB06FB051090DE20EF324D96E010EEB
:103C3800F420DA6EDECF11F0DDCF12F0B051090DAD
:103C4800DD0EF324D96E010EF420DA6EDF5035EC68
:103C58002DF00CC013F00DC014F080EC20F011C052
:103C6800AEF012C0AFF039EF1FF0000E956F000EE6
:103C7800966F200E976F410E986F000E916F000E91
:103C8800926F000E936F400E946F67EC00F091C036
:103C9800AAF092C0ABF093C0ACF094C0ADF0660E41
:103CA800206E660E216EBA0E226E410E236EAEC0D5
:103CB8000CF0AFC00DF00E6A0F6A000E6CEC21F02C
:103CC8000CC01CF00DC01DF00EC01EF00FC01FF080
:103CD8002EEC1AF01CC03DF01DC03EF01EC03FF097
:103CE8001FC040F0AAC041F0ABC042F0ACC043F0E6
:103CF800ADC044F043EC1CF00001B051090DDE0EDC
:103D0800F324D96E010EF420DA6E3DC0DEFF3EC00A
:103D1800DEFF3FC0DEFF40C0DEFF5BEF1FF0000E9E
:103D2800956F000E966F200E976F410E986F000EDC
:103D3800916F000E926F000E936F400E946F67ECB8
:103D480000F091C0AAF092C0ABF093C0ACF094C060
:103D5800ADF0AAC041F0ABC042F0ACC043F0ADC07A
:103D680044F0660E206E660E216E9E0E226E410E87
:103D7800236EAEC00CF0AFC00DF00E6A0F6A000ED5
:103D88006CEC21F00CC01CF00DC01DF00EC01EF034
:103D98000FC01FF02EEC1AF01CC03DF01DC03EF005
:103DA8001EC03FF01FC040F043EC1CF03DC0A6F021
:103DB8003EC0A7F03FC0A8F040C0A9F0A6C01CF0C4
:103DC800A7C01DF0A8C01EF0A9C01FF0000E206EED
:103DD800000E216EA00E226E410E236E2EEC1AF0FC
:103DE8000001B051090DDE0EF324D96E010EF42046
:103DF800DA6E1CC0DEFF1DC0DEFF1EC0DEFF1FC066
:103E0800DEFFB051090DDE0EF324D96E010EF42049
:103E1800DA6EDECF3DF0DECF3EF0DECF3FF0DECF14
:103E280040F0000E416E000E426E000E436E400ED2
:103E3800446EA6EC24F0D8B024EF1FF026EF1FF054
:103E48005BEF1FF00001B051090DDE0EF324D96EAF
:103E5800010EF420DA6E000EDE6E000EDE6E000E2D
:103E6800DE6E000EDD6E5BEF1FF00001B051090D34
:103E7800DD0EF324D96E010EF420DA6EDF50A46F44
:103E8800A56BA551000AD8B44CEF1FF05BEF1FF0EB
:103E9800A4510E0AD8B439EF1EF0010AD8B493EF32
:103EA8001EF01E0AD8B493EF1EF05BEF1FF000015E
:103EB800B02B020EB06563EF1FF065EF1FF016EF31
:103EC8001EF0120035C064F036C065F037C066F0E9
:103ED80038C067F03ABE7AEF1FF03A5009E1800E19
:103EE800395CD8A07AEF1FF07CEF1FF0DAEF1FF0F3
:103EF80064C01CF065C01DF066C01EF067C01FF0EE
:103F0800000E206E000E216E000E226E7F0E236EB4
:103F18002EEC1AF01CC064F01DC065F01EC066F0DF
:103F28001FC067F0810E3926FF0E3A223ABEA6EF6F
:103F38001FF03A5009E1800E395CD8A0A6EF1FF0B7
:103F4800A8EF1FF044EF20F064C01CF065C01DF01E
:103F580066C01EF067C01FF0000E206E000E216EB6
:103F6800000E226E7F0E236E2EEC1AF01CC064F039
:103F78001DC065F01EC066F01FC067F0810E3926AF
:103F8800FF0E3A223ABED2EF1FF03A5009E1800EF6
:103F9800395CD8A0D2EF1FF0D4EF1FF044EF20F027
:103FA800000E3A6E7F0E396E44EF20F03AAEE6EF1F
:103FB8001FF0820E395CFF0E3A58D8B0E6EF1FF0BA
:103FC800E8EF1FF044EF20F064C01CF065C01DF05E
:103FD80066C01EF067C01FF0000E206E000E216E36
:103FE800800E226E0C0E236E2EEC1AF01CC064F0AC
:103FF8001DC065F01EC066F01FC067F0660E39264A
:10400800000E3A223AAE12EF20F0820E395CFF0E13
:104018003A58D8B012EF20F014EF20F044EF20F017
:1040280064C01CF065C01DF066C01EF067C01FF0BC
:10403800000E206E000E216E800E226E0C0E236E76
:104048002EEC1AF01CC064F01DC065F01EC066F0AE
:104058001FC067F0660E3926000E3A223AAE3EEFD0
:1040680020F0820E395CFF0E3A58D8B03EEF20F0AF
:1040780040EF20F044EF20F0FF0E3A6E820E396ECA
:104088007F0E39243B6E000E3A203C6E3D6A3E6A34
:10409800170ED8903B363C363D363E36E82E4DEF6F
:1040A80020F03BC060F03CC061F03DC062F03EC013
:1040B80063F060C01CF061C01DF062C01EF063C0F8
:1040C8001FF064C020F065C021F066C022F067C010
:1040D80023F02EEC1AF01CC035F01DC036F01EC0BF
:1040E80037F01FC038F035C035F036C036F037C06D
:1040F80037F038C038F0120011C0D9FF12C0DAFF0B
:10410800DF50D8B48AEF20F08CEF20F0E5EF20F0F4
:10411800000E1C6E000E1B6E1BC015F01CC016F0A6
:10412800D8901536163611C017F012C018F0155071
:10413800172616501822010E1724D96E000E1820C3
:10414800DA6E13C0DEFF14C0DDFF1B4A1C2A1C50A8
:1041580009E1080E1B5CD8A0B4EF20F0B6EF20F000
:1041680090EF20F011C0D9FF12C0DAFF000EDF6E09
:10417800010E1124156E000E1220166E20EE11F09D
:104188001150D9261250DA2215C0DEFF16C0DDFF05
:1041980013C015F014C016F0D89015361636D890FE
:1041A80015361636D8901536163620EE13F01150FF
:1041B800D9261250DA2215C0DEFF16C0DDFF67EFE0
:1041C80021F020EE11F01150D9261250DA22DECF5C
:1041D80015F0DDCF16F015C0D9FF16C0DAFFDECF17
:1041E80017F0DDCF18F020EE13F01150D926125039
:1041F800DA22DECF19F0DDCF1AF01750195E185009
:104208001A5A1350192614501A2220EE13F011507E
:10421800D9261250DA2219C0DEFF1AC0DDFF20EEBF
:1042280011F01150D9261250DA22DECF15F0DDCF69
:1042380016F015C0D9FF16C0DAFF13C0DEFF14C090
:10424800DDFF20EE11F01150D9261250DA22020EAD
:10425800DE26000EDD220F0E1124176E000E12202E
:10426800186EDE50175CDE501858D8B03EEF21F0BB
:1042780040EF21F050EF21F0010E1124156E000ED1
:104288001220166E20EE11F01150D9261250DA22A3
:1042980015C0DEFF16C0DDFF20EE13F01150D92641
:1042A8001250DA22DECF15F0DDCF16F0D890163294
:1042B8001532D89016321532D8901632153215C0EC
:1042C80013F016C014F013C011F014C012F012004D
:1042D800146E1450D8B473EF21F075EF21F097EFF6
:1042E80021F00FBE7CEF21F07AEF21F097EF21F05B
:1042F8000CC010F00DC011F00EC012F00FC013F07A
:10430800101E111E121E131E102A000E1122122238
:10431800132210C016F011C017F012C018F013C005
:1043280019F09FEF21F00CC016F00DC017F00EC069
:1043380018F00FC019F00C500D100E100F10D8A463
:10434800A8EF21F0AAEF21F0B4EF21F0000E0C6ED7
:10435800000E0D6E000E0E6E000E0F6E45EF22F071
:10436800960E156EBEEF21F0152AD8901932183224
:1043780017321632000E1614106E000E1714116E36
:10438800000E1814126EFE0E1914136E1050111030
:1043980012101310D8A4D3EF21F0D5EF21F0B8EF05
:1043A80021F0E3EF21F0152A010E1626000E172240
:1043B80018221922D8901932183217321632000EE4
:1043C8001614106E000E1714116E000E1814126ECB
:1043D800FF0E1914136E1050111012101310D8A4D8
:1043E800F8EF21F0FAEF21F0D7EF21F002EF22F0F9
:1043F8001506D890163617361836193618BE07EF30
:1044080022F009EF22F011EF22F0020E15600FEFF3
:1044180022F011EF22F0FCEF21F015B016EF22F098
:1044280018EF22F019EF22F0189ED890153215C017
:1044380010F0116A126A136A10C013F0126A116A36
:10444800106A1050161211501712125018121350E9
:1044580019121450D8B433EF22F035EF22F03DEFA3
:1044680022F00FBE3CEF22F03AEF22F03DEF22F0AF
:10447800198E16C00CF017C00DF018C00EF019C038
:104488000FF0120051C0B8F152C0B9F1DDEF22F0BF
:1044980020EE04F0B851D926B951DA22B8C1E1FFAB
:1044A800B9C1E2FFE6CFB9F0E6CFBAF0E6CFBBF08C
:1044B800E6CFBCF00001B951D15DBD6FBA51D259F8
:1044C800BE6FBB51D359BF6FBC51D459C06FDE50BA
:1044D800BD5DDE50BE59DE50BF59DE50C059D8A070
:1044E80078EF22F07AEF22F0D2EF22F0010120EEED
:1044F8000CF0B851D926B951DA22DE50DE10DE10A0
:10450800DE10D8A48AEF22F08CEF22F094EF22F08C
:10451800B8C10CF0B9C10DF021EC2BF0B4EF22F0CA
:10452800B8C1D9FFB9C1DAFFD1C0DEFFD2C0DEFF02
:10453800D3C0DEFFD4C0DEFF20EE0CF0B851D92680
:10454800B951DA2210EE04F0B851E126B951E2224D
:10455800DECFE6FFDECFE6FFDECFE6FFDECFE6FF0B
:10456800010120EE10F0B851D926B951DA22DECF78
:10457800A2F0DDCFA3F020EE12F0B851D926B95140
:10458800DA2202D8D2EF22F00500FA6EDE50FD6E74
:10459800DE50FE6EF850FF6EFA501200010120EE58
:1045A80014F0B851D926B951DA22DECFB8F1DDCFEF
:1045B800B9F10101B851B911D8A4E5EF22F0E7EF3C
:1045C80022F04CEF22F01200000E00016B6F000E7B
:1045D8006C6F000E6D6FDD0E0C6E010E0D6E6B0EA6
:1045E8000E6E000E0F6E0AEC2CF0000E00016E6FBE
:1045F8006E510B0D020EF324D96E040EF420DA6E00
:104608006B51DE18D8A40BEF23F00DEF23F07BEFEE
:1046180023F06E510B0D030EF324D96E040EF42013
:10462800DA6EDE506C19D8A41CEF23F01EEF23F0CD
:104638007BEF23F06E510B0D040EF324D96E040E9C
:10464800F420DA6EDE506D19D8A42DEF23F02FEF89
:1046580023F07BEF23F06E510B0D000EF3246F6FE8
:10466800040EF420706F6FC00CF070C00DF01DECDC
:1046780030F000016F517011D8B445EF23F047EFC7
:1046880023F05EEF23F06FC068F070C069F020EE91
:1046980009F06F51D9267051DA2202D85EEF23F063
:1046A8000500FA6EDE50FD6EDE50FE6EF850FF6EAD
:1046B800FA501200000120EE05F06F51D926705112
:1046C800DA22DECFF2F0DDCFF3F020EE07F06F5103
:1046D800D9267051DA22DF50506E20EE08F06F5163
:1046E800D9267051DA22DF504F6E84EF23F06E2BFB
:1046F800070E6E6582EF23F084EF23F0FCEF22F0C3
:10470800120020EEA6F00B0EDE6AE806FDE2F2C00B
:10471800B2F0F3C0B3F000EF24F0000EB46FB45160
:10472800090DDE0EF324D96E010EF420DA6EB451B1
:10473800040DA60EF324E16E000EF420E26EDECF27
:10474800E6FFDECFE6FFDECFE6FFDECFE6FFB451C1
:10475800040DA60EF3240C6E000EF4200D6E000E50
:104768000E6E040E0F6E19EC29F00001B42B020E28
:10477800B465C1EF23F0C3EF23F093EF23F0000EED
:10478800236E000E226EA60E246E000E256E0C0EF1
:10479800266E460EE0EC2AF01BEF24F0000E236E86
:1047A800010E226E530E246E000E256E010E266E2B
:1047B800450EE0EC2AF01BEF24F0000EF76FB20E66
:1047C8000C6E000E0D6E000E0E6E020E0F6E19ECC2
:1047D80029F0000E236E060E226EB20E246E000E15
:1047E800256E020E266E460EE0EC2AF01BEF24F032
:1047F800000EF76F1BEF24F00001F72BF751A46FA1
:10480800A56BA551000AD8B40CEF24F0FCEF23F0F7
:10481800A451010AD8B491EF23F0030AD8B4D2EF17
:1048280023F0010AD8B4E1EF23F0FCEF23F01200E3
:1048380020EE03F00C50D9260D50DA22DF500E6E10
:1048480020EE02F00C50D9260D50DA22DF500F6E00
:104858000E50116E0FC012F020EE04F00C50D92645
:104868000D50DA22DF50136E84EF24F05328D8A4B9
:1048780040EF24F042EF24F056EF24F01328D8A498
:1048880048EF24F04AEF24F060EF24F05050D8B4F9
:1048980050EF24F052EF24F056EF24F089948A80E8
:1048A8009AEF24F020EE04F00C50D9260D50DA22AD
:1048B800000EDF6E9AEF24F04F50D8B466EF24F064
:1048C80068EF24F06BEF24F089849AEF24F020EE4F
:1048D80004F00C50D9260D50DA22FF0EDF6E9AEF45
:1048E80024F01328D8A47BEF24F07DEF24F080EF88
:1048F80024F053689AEF24F0000E536E9AEF24F0D8
:1049080011C00EF012C00FF00F50000AD8B48FEF8C
:1049180024F09AEF24F00E50000AD8B43AEF24F0AD
:10492800010AD8B475EF24F09AEF24F020EE04F0D1
:104938000C50D9260D50DA22DF500E6E0E500C6E38
:104948000D6A1200000E3D140001606F000E3E1447
:10495800616F800E3F14626F7F0E4014636F605169
:10496800611162116311D8A4BCEF24F0BEEF24F0EA
:10497800C6EF24F0000E3D6E000E3E6E000E3F6E38
:10498800000E406E000E4114606F000E4214616FFD
:10499800800E4314626F7F0E4414636F605161117F
:1049A80062116311D8A4DBEF24F0DDEF24F0E5EF0A
:1049B80024F0000E416E000E426E000E436E000E93
:1049C800446E40AEEAEF24F0ECEF24F0F5EF24F06B
:1049D8003D6C3E1ED8B03E2A3F1ED8B03F2A800EFE
:1049E800405644AEFAEF24F0FCEF24F005EF25F032
:1049F800416C421ED8B0422A431ED8B0432A800ECA
:104A08004456000E3D1A000E3E1A000E3F1A800E44
:104A1800401A000E411A000E421A000E431A800E68
:104A2800441A41503D5C42503E5843503F58445010
:104A38004058D8B022EF25F024EF25F027EF25F0D5
:104A4800D89028EF25F0D88012005350D8A42FEF23
:104A580025F031EF25F05CEF25F04D2A4D040001DB
:104A6800666F66B13AEF25F03CEF25F043EF25F08D
:104A7800010EF91BF9B102D08A9001D08A800A0E82
:104A88004D6449EF25F04BEF25F061EF25F0000E5E
:104A98000001F96F000E4D6E53688A9064C00CF0E7
:104AA80065C00DF0020E0E6E26EC30F0A7EF25F073
:104AB800000E0001F96F000E4D6EF0C13DF0F1C11E
:104AC8003EF0F2C13FF0F3C140F0000E416E000E1F
:104AD800426E480E436E430E446EA6EC24F0D8A0F6
:104AE80078EF25F07AEF25F09FEF25F04D50D8B4F8
:104AF80080EF25F082EF25F087EF25F0000E00010A
:104B0800F96F000E4D6E89868A90050E6CEC2FF0B9
:104B18000009D8B492EF25F094EF25F095EF25F031
:104B2800898264C00CF065C00DF0000E0E6E26EC94
:104B380030F0A7EF25F064C00CF065C00DF0010E51
:104B48000E6E26EC30F01200920EF66E510EF76ED5
:104B5800000EF86E04EE00F010EEA0F00900F5CF9C
:104B6800EEFFE550E150FAE1C20EF66E5B0EF76E0D
:104B7800000EF86E03EEAEF010EE3FF00900F5CF30
:104B8800EEFFE550E150FAE1B40EF66E5A0EF76EFC
:104B9800000EF86E02EEAFF010EE48F00900F5CF07
:104BA800EEFFE550E150FAE1960EF66E5F0EF76EF5
:104BB800000EF86E01EEDDF010EE1BF00900F5CFE7
:104BC800EEFFE550E150FAE1240EF66E610EF76E45
:104BD800000EF86E00EEFAF010EE05F00900F5CFC1
:104BE800EEFFE550E150FAE103EE00F0AE0EEE6A9A
:104BF800E806FDE102EE00F0AF0EEE6AE806FDE120
:104C080001EEBAF0230EEE6AE806FDE100EEC1F00F
:104C1800390EEE6AE806FDE100EE45F00F0EEE6A89
:104C2800E806FDE154905492000EF86E0001AFEFD3
:104C38002FF0FACF01F0FBCF02F0D9CF03F0DACF93
:104C480004F09DAC2AEF26F02CEF26F037EF26F083
:104C58009EAC31EF26F033EF26F037EF26F052EC1A
:104C68002EF085EF26F0F2AA3CEF26F03EEF26F074
:104C780049EF26F0F2A443EF26F045EF26F049EF7E
:104C880026F037EC30F085EF26F0A3A84EEF26F09B
:104C980050EF26F067EF26F0A4A855EF26F057EF5F
:104CA80026F067EF26F002D865EF26F00500000130
:104CB800FA6EE451FD6EE551FE6EF850FF6EFA5043
:104CC800120085EF26F0A3AA6CEF26F06EEF26F00F
:104CD80085EF26F0A4AA73EF26F075EF26F085EF8E
:104CE80026F002D883EF26F005000001FA6EE251A3
:104CF800FD6EE351FE6EF850FF6EFA50120085EF1C
:104D080026F004C0DAFF03C0D9FF02C0FBFF01C0D0
:104D1800FAFF5492110019C2A8F01AC2ABF00201AE
:104D28001B510001A46F02011C510001A66FA4C011
:104D3800A7F0D9EC2FF00009D8B4A5EF26F0A7EF1B
:104D480026F0FFEF26F0020E0001A819D8A4AFEF55
:104D580026F0B1EF26F0FAEF26F0000EAC6FAC515A
:104D6800030DFA0EF324D96E000EF420DA6EAB515F
:104D7800DE18D8A4C2EF26F0C4EF26F0F1EF26F033
:104D8800190E0C6E020E0D6EAC51030DFB0EF324C2
:104D9800D96E000EF420DA6E02D8DDEF26F0050099
:104DA800FA6EDE50FD6EDE50FE6EF850FF6EFA5061
:104DB80012000CC0A9F00DC0AAF0A6C022F0A7C02E
:104DC80023F0A90E246E000E256E020E266E000139
:104DD800AB51E0EC2AF0FAEF26F0AC2BAC51D8B48A
:104DE800F8EF26F0FAEF26F0B3EF26F0000E0201F6
:104DF800186F000E176F1200000E206E000E1F6E47
:104E0800020E0201796F1CC07AF21E507B6F1DC022
:104E18007CF21C04D8B413EF27F015EF27F01EEF2F
:104E280027F0050E1C18D8A41CEF27F01EEF27F05A
:104E380030EF27F07D0E0C6E020E0D6E18C00EF0CE
:104E480019C00FF01AC010F0116A0DEC2DF01A50AD
:104E5800040F216E46EF27F0000E7D6F1BC07EF217
:104E68001AC07FF2800E0C6E020E0D6E18C00EF086
:104E780019C00FF01AC010F0116A0DEC2DF01A507D
:104E8800070F216E790E0C6E020E0D6E21C00EF00A
:104E9800FF0E106E0F68B7EC29F00CC01FF00DC0A4
:104EA80020F0790E2124D96EDA6A020EDA221FC0A8
:104EB800DFFF212A790E2124D96EDA6A020EDA225E
:104EC8002050DF6E212A21501200000E1A6E1A504F
:104ED8000C0DAF0EF324D96E020EF420DA6EDECF7D
:104EE8000CF0DDCF0DF01A500C0DB10EF324D96E75
:104EF800020EF420DA6EDECF0EF0DDCF0FF01A507E
:104F08000C0DB30EF324D96E020EF420DA6EDECF48
:104F180010F0DECF11F0DECF12F0DECF13F01A5012
:104F28000C0DB70EF324D96E020EF420DA6EDECF24
:104F380014F0DECF15F0DECF16F0DECF17F01A50E2
:104F48000C0DAF0EF324D96E020EF420DA6EDECF0C
:104F580018F0DDCF19F078EC28F01A500C0DAF0ED0
:104F6800F324D96E020EF420DA6EDECF0CF0DDCF1A
:104F78000DF040EC2CF01A2A050E1A64C6EF27F043
:104F8800C8EF27F06BEF27F01200000E0001A56FA5
:104F9800A551090DDE0EF324D96E010EF420DA6E48
:104FA800DECF3DF0DECF3EF0DECF3FF0DECF40F08B
:104FB800000E416E000E426E300E436E410E446E7E
:104FC800A6EC24F0D8B0EBEF27F0EDEF27F0F7EFE1
:104FD80027F00001A551090DE50EF324D96E010E45
:104FE800F420DA6EDF2A0001A52B070EA565FFEF76
:104FF80027F001EF28F0CCEF27F0F82B0E0EF8651C
:1050080008EF28F00AEF28F024EF28F0000EF86FD8
:10501800E8EC22F0000E0001A46FA451090DE50E82
:10502800F324D96E010EF420DA6E000EDF6EA42B85
:10503800070EA46522EF28F024EF28F011EF28F0DE
:105048001200A2C0A4F0A3C0A5F0F2C0A6F000010F
:10505800A605D8B432EF28F034EF28F058EF28F03E
:10506800020EA619D8B43BEF28F03DEF28F058EF10
:1050780028F0040EA619D8B444EF28F046EF28F01B
:1050880058EF28F0060EA619D8B44DEF28F04FEFC8
:1050980028F058EF28F0080EA619D8A456EF28F0E3
:1050A80058EF28F068EF28F020EE0CF0A451D9262C
:1050B800A551DA220A0EDE6E000EDE6E000EDE6EDE
:1050C800000EDD6E76EF28F020EE0CF0A451D92604
:1050D800A551DA22640EDE6E000EDE6E000EDE6E64
:1050E800000EDD6E8B70120020EE12F00C50D926E7
:1050F8000D50DA220EC0DEFF0FC0DDFF20EE08F0F3
:105108000C50D9260D50DA2210C0DEFF11C0DEFF88
:1051180012C0DEFF13C0DEFF20EE0CF00C50D926C3
:105128000D50DA2214C0DEFF15C0DEFF16C0DEFF08
:1051380017C0DEFF0CC0D9FF0DC0DAFFD1C0DEFFFB
:10514800D2C0DEFFD3C0DEFFD4C0DEFF20EE08F001
:105158000C50D9260D50DA2210EE04F00C50E1263E
:105168000D50E222DECFE6FFDECFE6FFDECFE6FF20
:10517800DECFE6FF20EE10F00C50D9260D50DA22D3
:1051880018C0DEFF19C0DDFF1200B27F000000FF6B
:10519800010100205E2C7F000001FF020000F25D8B
:1051A800FC7E000100FF030000C45D437F00010195
:1051B800FF040001D052147F010000FF0501009692
:1051C8005D597F010001FF060000365D437F010144
:1051D80000FF070000065D917F010101FF08000143
:1051E8003855F17FFC7FC800FC7FF57FC800DF7F62
:1051F800F97F3200AE7EF97F3200C27FF97F32003C
:10520800A27FF97F32006E7FF97F3200D67EF97F68
:105218003200D17FF97F3200807FF97F3200857EAE
:10522800F97F3200EA7FF97F3200000E176ED890BE
:105238000F30146E0E500F24106E1004166E5EEFB1
:1052480029F00E500C24106E000E0D20116E175010
:105258001024D96E000E1120DA6EDF50156E16502C
:105268000C24106E000E0D20116E1750105CD96EB4
:105278001150D8A01104DA6E0E500C24126E000ED4
:105288000D20136E17501224E16E000E1320E26EEB
:10529800DFCFE7FF16500C24106E000E0D20116EA4
:1052A8001750105CD96E1150D8A01104DA6E15C0D1
:1052B800DFFF172A1450175CD8A065EF29F067EFB5
:1052C80029F025EF29F01200000168516911D8A4CE
:1052D80070EF29F072EF29F074EF29F0B6EF29F09A
:1052E80089928A908984F0C13DF0F1C13EF0F2C103
:1052F8003FF0F3C140F0000E416E000E426E000E0A
:10530800436E400E446EA6EC24F0D8B08EEF29F020
:1053180090EF29F0A7EF29F0899668C00CF069C0D2
:105328000DF0070E0E6E26EC30F0050E6CEC2FF02B
:105338000009D8B4A2EF29F0A4EF29F0AFEF29F0C3
:105348008982AFEF29F068C00CF069C00DF0080E33
:105358000E6E26EC30F068C064F069C065F0010E8E
:105368005FEC2BF012000FC016F010C017F0000E03
:10537800136EF6EF29F00CC0D9FF0DC0DAFFDF502D
:10538800116E1150161A0C4A0D2A000E156E000ED9
:10539800146E16A0D2EF29F0D4EF29F0E1EF29F02E
:1053A800D8901730126E1630116E010E1118166E45
:1053B800A00E1218176EE8EF29F0D8901730116E6A
:1053C8001630166E11C017F0144A152A155009E147
:1053D800080E145CD8A0F3EF29F0F5EF29F0CDEF13
:1053E80029F0132A0E50135CD8A0FDEF29F0FFEF27
:1053F80029F0BFEF29F016C00CF017C00DF012000D
:10540800000E0101BA6FABA40CEF2AF00EEF2AF0E0
:105418001DEF2AF0BA8302D81DEF2AF0050000011B
:10542800FA6EEA51FD6EEB51FE6EF850FF6EFA50BF
:105438001200ABA222EF2AF024EF2AF034EF2AF070
:105448000101BA8502D834EF2AF005000001FA6E8E
:10545800E851FD6EE951FE6EF850FF6EFA501200E9
:105468000101BA51D8B43BEF2AF03DEF2AF04DEFD5
:105478002AF002D84BEF2AF005000001FA6EE65137
:10548800FD6EE751FE6EF850FF6EFA5012004FEFB6
:105498002AF03EEC2FF01200000E0201166F71A4E4
:1054A80058EF2AF05AEF2AF069EF2AF0168302D84B
:1054B80069EF2AF005000001FA6EE051FD6EE15136
:1054C800FE6EF850FF6EFA50120071A26EEF2AF0CD
:1054D80070EF2AF080EF2AF00201168502D880EFDB
:1054E8002AF005000001FA6EDE51FD6EDF51FE6EF6
:1054F800F850FF6EFA50120002011651D8B487EF27
:105508002AF089EF2AF099EF2AF002D897EF2AF0CB
:1055180005000001FA6EDC51FD6EDD51FE6EF8509B
:10552800FF6EFA5012009BEF2AF055EC2FF0120094
:10553800000168516911D8A4A4EF2AF0A6EF2AF057
:10554800A8EF2AF0DFEF2AF089928A9089848B9855
:10555800F0C13DF0F1C13EF0F2C13FF0F3C140F0BF
:10556800000E416E000E426E000E436E400E446EF9
:10557800A6EC24F0D8B0C3EF2AF0C5EF2AF0D0EF9C
:105588002AF0899668C00CF069C00DF0070E0E6EFF
:1055980026EC30F0D8EF2AF068C00CF069C00DF0A6
:1055A800080E0E6E26EC30F068C064F069C065F035
:1055B800000E5FEC2BF01200286E24502510D8B492
:1055C800E8EF2AF0EAEF2AF020EF2BF02650D8B4C3
:1055D800F0EF2AF0F2EF2AF020EF2BF0020E26600F
:1055E800F8EF2AF0FAEF2AF000EF2BF0000E2A6EFF
:1055F800010E296E07EF2BF026C027F0D89027322E
:105608002750296E2A6A24C018F025C019F026C030
:105618001AF029C01BF028C01CF022C01DF023C0BE
:105628001EF000EC27F02B6E790E176E020E186E26
:105638002BC019F0DDEC2CF01200510E126E000E8A
:10564800136E51EF2BF012C0D9FF13C0DAFFDECF73
:1056580010F0DDCF11F00C50101807E10D501118A3
:10566800D8A439EF2BF03BEF2BF04BEF2BF020EECB
:1056780014F01050D9261150DA2212C0E1FF13C0DD
:10568800E2FFDECFE6FFDDCFE5FF5EEF2BF0140E85
:105698001024126E000E1120136E12C0D9FF13C011
:1056A800DAFFDE50DE10D8A45CEF2BF05EEF2BF0B3
:1056B80027EF2BF01200E7C13DF0E8C13EF0E9C149
:1056C8003FF0EAC140F0000E416E000E426E480EF7
:1056D800436E430E446EA6EC24F0D8A076EF2BF070
:1056E80078EF2BF090EF2BF064C00CF065C00DF054
:1056F800050E0E6E26EC30F0050E6CEC2FF000094E
:10570800D8B489EF2BF08BEF2BF08EEF2BF089823A
:1057180098EF2BF098EF2BF064C00CF065C00DF0FB
:10572800060E0E6E26EC30F012009D9A080E0C6ED6
:10573800540E0D6E6AEC30F09D98420E0C6E5B0EA6
:105748000D6E65EC30F0080EB86E900EAB6E240E40
:10575800AC6E7F0EAF6E040EB06E2A0E0C6E610E2C
:105768000D6E74EC30F0060E0C6E610E0D6E6FEC63
:1057780030F00C0E0C6E610E0D6E79EC30F0000EF0
:105788004C6E000E4B6E200E4A6E000E0101BA6F71
:10579800000EBC6F000EBB6F9D8A1200F0C13DF079
:1057A800F1C13EF0F2C13FF0F3C140F0000E416E8E
:1057B800000E426E480E436E430E446EA6EC24F073
:1057C800D8A0E9EF2BF0EBEF2BF001EF2CF0050E52
:1057D8006CEC2FF00009D8B4F4EF2BF0F6EF2BF0B7
:1057E800F7EF2BF0898264C00CF065C00DF0030E52
:1057F8000E6E26EC30F009EF2CF064C00CF065C09A
:105808000DF0040E0E6E26EC30F01200000E136E32
:105818001350090D0CC010F00DC011F0F3501026F4
:10582800F4501122080E1024D96E000E1120DA6EE1
:10583800060EDF6022EF2CF024EF2CF02EEF2CF078
:1058480013500E24D96E000E0F20DA6E010EDF6E93
:1058580036EF2CF013500E24D96E000E0F20DA6E9E
:10586800000EDF6E132A020E13643DEF2CF03FEF9B
:105878002CF00CEF2CF0120051C00EF052C00FF0BB
:105888005EEF2CF00C500E1807E10D500F18D8A43D
:1058980050EF2CF052EF2CF054EF2CF075EF2CF069
:1058A80020EE14F00E50D9260F50DA22DECF0EF07B
:1058B800DDCF0FF00E500F10D8A465EF2CF067EF76
:1058C8002CF046EF2CF020EE14F00C50D9260D5099
:1058D800DA2251C0DEFF52C0DDFF0CC051F00DC00E
:1058E80052F01200A39AA00E0C6E540E0D6E51ECDD
:1058F80030F0A398820E0C6E5B0E0D6E4CEC30F0FF
:10590800080E706E900E716E240E726E5F0E756EBC
:10591800000E766E2C0E0C6E610E0D6E5BEC30F088
:10592800180E0C6E610E0D6E56EC30F01E0E0C6EDD
:10593800610E0D6E60EC30F0000E496E000E486E80
:10594800400E476E000E0201166FA38A1200F3EC98
:105958002FF00009D8B4B3EF2CF0B5EF2CF0DCEF42
:105968002CF0000E4B6E9D98210E1960BEEF2CF0A6
:10597800C0EF2CF0C5EF2CF019C01AF01B6AC9EF64
:105988002CF0000E1B6E200E1A6E1A504A5E590E2D
:105998000C6E020E0D6E17C00EF018C00FF01AC074
:1059A80010F01BC011F00DEC2DF09D8809EC30F0C3
:1059B8001200FEEC2FF00009D8B4E5EF2CF0E7EF69
:1059C8002CF00CEF2DF0000E486EA398410E1960D4
:1059D800F0EF2CF0F2EF2CF0F6EF2CF019C01AF0E3
:1059E800F8EF2CF0400E1A6E1AC049F01A50475EB4
:1059F800000E0C6E030E0D6E17C00EF018C00FF0DF
:105A080049C010F0116A0DEC2DF0A38813EC30F0AA
:105A180012000EC015F00FC016F00CC013F00DC028
:105A280014F027EF2DF015C0D9FF16C0DAFFDF50AC
:105A3800126E154A162A13C0D9FF14C0DAFF12C015
:105A4800DFFF134A142A1006D8A01106102806E111
:105A58001128D8A432EF2DF034EF2DF017EF2DF0E8
:105A68001200106E10C00EF00E460E46C2500E18F0
:105A7800830B0E18C26EC280C282C2B246EF2DF0EE
:105A880048EF2DF041EF2DF0C290C350C4CF0EF077
:105A98000F6A0EC00FF00E6A0E26000E0F22FF0EC0
:105AA8000E140C6E030E0F140D6E12009902924F15
:105AB80000000000140000009803223C0A000000C7
:105AC8003200000082030A470F000000E8030000CC
:105AD8006C034A5014000000640000005603D65CB2
